:02000002B0004C
:1040000000400B0070540B00000006000C0005027D
:084010000401E50C00000000B2
:044018006C510B00DC
:10401C0009480A49884208B505D0094A824202D0AB
:10402C00121A00F0EBFF0748074A0021121A00F0A1
:10403C00F3FF014808BD00BF34E60320D8530B0042
:10404C00A4E60320A4E60320EDE7032070B5074E99
:10405C00074C00F027FCA41BA4080025AC4200D19F
:10406C0070BD56F8043B98470135F7E788530B00B1
:10407C00B0530B0000F02EB808B500F055F8BDE8B1
:10408C00084000F0C7BB00F0BBBA00F0C1BA007822
:10409C00B0FA80F04009704701230370704708B5EF
:1040AC000021022000F0FBFE0021032000F0F7FEAF
:1040BC000021042000F0F3FE0021052000F0EFFEAB
:1040CC000021062000F0EBFEBDE80840002107208F
:1040DC0000F0E5BE08B500F0EDFC4FF4165100F011
:1040EC00DDFC0021132000F0C9FE0021122000F09D
:1040FC00C5FE0121022000F0C1FE0121032000F0C9
:10410C00BDFE0121042000F0B9FE0121052000F0C4
:10411C00B5FE0121062000F0B1FEBDE808400121EA
:10412C00072000F0ABBE000010B5132000F0D0FE4D
:10413C004C4C003818BF01202070122000F0C8FE33
:10414C00494B021E18BF01221A702378474C8BBBB7
:10415C00012323700121072000F0A1FE012104207E
:10416C0000F09DFE4FF4487000F028FBFFF797FF1E
:10417C000121042000F093FE0121072000F08FFEA6
:10418C004FF4FA6000F01AFB0021072000F087FEC4
:10419C000121062000F083FE41F2883000F00EFB76
:1041AC000021062000F07BFE0121052000F077FEA7
:1041BC00032330E088BB20700121042000F06FFE47
:1041CC000121072000F06BFE4FF4487000F0F6FA66
:1041DC00FFF765FF0121072000F061FE012104209B
:1041EC0000F05DFE4FF4FA6000F0E8FA00210420C4
:1041FC0000F055FE0121032000F051FE41F2883001
:10420C0000F0DCFA0021032000F049FE012102201D
:10421C0000F045FE0223237010BD2378032BFBD83E
:10422C0001A252F823F000BFC5410B0061410B0005
:10423C0045420B005D420B00FFF731FF01210220CC
:10424C0000F02DFE01210720BDE8104000F027BE34
:10425C00FFF725FF0121052000F021FE012104209C
:10426C00F2E700BFB0E60320B1E6032034E60320FA
:10427C0010B5074B074A9A600024C3E90044032099
:10428C0000F02AF921460120BDE8104000F034B9B5
:10429C00A4E603200000FFFF08B500F015F8014B61
:1042AC00186008BDB4E6032008B5024B1B689B6878
:1042BC00019308BD6802030008B5024B1B68DB685C
:1042CC00019308BD6802030008B5024B1B681B680C
:1042DC00019308BD2C02030008B5024B1B689B68B8
:1042EC00019308BD2C02030008B5024B1B68DB6868
:1042FC00019308BD2C02030008B5024B1B681B6917
:10430C00019308BD2C02030008B5024B1B685B69C6
:10431C00019308BD2C02030008B5024B1B685B68B7
:10432C00019308BD1802030008B5024B1B685B69BA
:10433C00019308BD1802030008B5024B1B685B6CA7
:10434C00019308BD4802030008B5024B1B685B696A
:10435C00019308BD6402030008B5024B1B68DB68BF
:10436C00019308BD3C02030008B5024B1B681B6996
:10437C00019308BD3C02030008B5024B1B685B6946
:10438C00019308BD3C02030008B5024B1B689B69F6
:10439C00019308BD3C02030008B5024B1B68DB69A6
:1043AC00019308BD3C02030008B5024B1B681B6A55
:1043BC00019308BD3C02030008B5024B1B689B6AC5
:1043CC00019308BD3C02030008B5024B1B681B6C33
:1043DC00019308BD3C02030008B5024B1B681B6A25
:1043EC00019308BD2802030008B5024B1B685B6AE9
:1043FC00019308BD2802030008B5024B1B689B6A99
:10440C00019308BD2802030008B5024B1B68DB6A48
:10441C00019308BD2802030008B5024B1B681B6BF7
:10442C00019308BD2802030008B5024B1B685B6BA7
:10443C00019308BD2802030008B5024B1B681B6CD6
:10444C00019308BD2802030008B5024B1B68DB6909
:10445C00019308BD3002030008B5024B1B681B6AB0
:10446C00019308BD3002030008B5024B1B681B68A2
:10447C00019308BD4C02030008B5024B1B685B6836
:10448C00019308BD4C02030008B5024B1B681B6965
:10449C00019308BD4C02030008B5024B1B685B6915
:1044AC00019308BD4C02030008B5024B1B689B69C5
:1044BC00019308BD4C02030008B5024B1B68DB6975
:1044CC00019308BD4C02030008B5024B1B681B6A24
:1044DC00019308BD4C02030008B5024B1B685B68D6
:1044EC00019308BD2002030008B5024B1B685B69F1
:1044FC00019308BD2002030008B5024B1B68DB6A60
:10450C00019308BD2002030008B5034B1B68D3F8C8
:10451C008830019308BD00002002030008B5034B4E
:10452C001B68D3F89430019308BD000020020300EF
:10453C0008B5024B1B685B68019308BD4002030081
:10454C0008B5024B1B689B68019308BD4002030031
:10455C0008B5024B1B68DB68019308BD40020300E1
:10456C0008B5024B1B681B69019308BD4002030090
:10457C0008B5024B1B685B69019308BD4002030040
:10458C0008B5024B1B689B69019308BD40020300F0
:10459C0008B5024B1B68DB69019308BD40020300A0
:1045AC0008B5024B1B681B6A019308BD400203004F
:1045BC0008B5024B1B681B6B019308BD400203003E
:1045CC0008B5024B1B685B6B019308BD40020300EE
:1045DC0008B5024B1B681B6C019308BD400203001D
:1045EC0008B5024B1B685B6C019308BD40020300CD
:1045FC0008B5024B1B68DB6B019308BD440203003A
:10460C0008B5024B1B681B68019308BD1C02030014
:10461C0008B5024B1B685B68019308BD1C020300C4
:10462C0008B5024B1B681B6C019308BD1C020300F0
:10463C0008B5024B1B685B6C019308BD1C020300A0
:10464C00002240681146FFF7ABBF002240681146BC
:10465C00FFF7B6BF40680022FFF7AABF40680022F0
:10466C0081F00101FFF794BF002340681A461946F8
:10467C00FFF786BF002340681A461946FFF778BF3C
:10468C00002240681146FFF76BBF002240681146BC
:10469C00FFF756BF406800220221FFF759BF0023E5
:1046AC0040681A46FFF744BF024B03225A60024A85
:1046BC001A607047B8E6032088510B0010B5044609
:1046CC0008462170FFF7C0FE00236360204610BD32
:1046DC00054B02221A60054B054A9A600020C3E97B
:1046EC000000FFF7F9BE00BFCCE60320C0E60320B4
:1046FC000000FFFF024800230360FFF71DBE00BF50
:10470C00D0E60320F8B506460D468F180024BD42AE
:10471C000CD0336815F8011B9B6830469847031E74
:10472C0001DB1C44F3E7002C08BF1C462046F8BDF7
:10473C0013B50446084659B1019100F0A3FC236857
:10474C000199DB680246204602B0BDE810401847CC
:10475C0002B010BD03689B68184730B58BB00023BE
:10476C00012A8DF8243098BF0A2209AC0D46B1FB02
:10477C00F2F101FB125303F0FF03092B94BF30330A
:10478C003733DBB2AA4204F8013DEFD92146FFF7DB
:10479C00CFFF0BB030BD0000014B024A1A607047CE
:1047AC00D4E60320BC510B00024B1A68024B1A6072
:1047BC00704700BF38E60320D8E603200021FFF73E
:1047CC0093BE0000014B00229A607047DCE6032088
:1047DC00014B1860704700BF3CE6032008B50B4B3B
:1047EC0043B100F067F903681B699847002801DDA5
:1047FC00AFF30080064B43B100F098FB03681B69D4
:10480C009847002801DDAFF3008008BD00000000D0
:10481C000000000008B5FFF7E1FFFFF785FD014B35
:10482C00186008BD40E703200548064A064908B54C
:10483C00121A00F0E3FB054B054A1A6008BD00BFD5
:10484C0000F4032004F40320D4530B0000F40320E1
:10485C001E1C279A07B5002300931A466FF07701A8
:10486C00FFF75CFE03B05DF804FB000007B543885E
:10487C000A2B08D0502B0BD1094B1B684BB103B042
:10488C005DF804EB1847FFF7E5FF03B05DF804FB98
:10489C00002300931A466FF07701FFF73FFEF4E711
:1048AC00F0E6032010B512480021FFF7C1FE114BB2
:1048BC001A68114B9A42114B0CBF012200221A703C
:1048CC0001D0FFF7B1FFFFF727FD044600F0ACFB6A
:1048DC000B4B13B12046AFF3008000210848FFF7C3
:1048EC0087FEBDE8104007480021FFF70DBE00BF52
:1048FC00DD470B0000F403201E1C279AECE6032076
:10490C000000000079480B00704710B518210446D0
:10491C00FFF7BBFB204610BDF0B5037D062B8DB019
:10492C000E4600F104074FF0000412D000F1080508
:10493C0015F8011D0A223046FFF70FFFAF42044461
:10494C0019D0002CF4D02E213046FFF703FF04447D
:10495C00EEE72F236A4639460A208DF80040FFF710
:10496C00F3FC684600F08EFB33680246DB68694650
:10497C0030469847044620460DB0F0BD10B5054BA7
:10498C000446112240F8043B002100F045FB204670
:10499C0010BD00BFE4510B000346074A10B543F8A5
:1049AC00042B01F1100251F8044B43F8044B9142D3
:1049BC00F9D10A781A7010BDE4510B0010B59DF8AE
:1049CC00084044EA032343EA024242EA0161042319
:1049DC004160037510BD000007B5064B0360CB7832
:1049EC0000938B784A780978FFF7E8FF03B05DF8FD
:1049FC0004FB00BFE4510B004174704770477047D3
:104A0C0008B50021007CFFF74FFD40EAE07008BDBF
:104A1C0008B50121007CFFF747FD40EAE07008BDB6
:104A2C0008B5007CFFF738FD20EAE07008BD08B53A
:104A3C00007CFFF729FD20EAE07008BD13B50446A1
:104A4C00007C0191FFF728FD0028019901DC607CB6
:104A5C0020B1207CFFF730FD20EAE07002B010BDE1
:104A6C00007CFFF731BD10B514210446FFF70DFB98
:104A7C00204610BD10B54FF47A7304460846002149
:104A8C00C4E90113044B23600123207463741146A1
:104A9C00FFF7EAFC204610BDF8510B00007C002209
:104AAC00FFF7EABC10B514220446002100F0B4FA5A
:104ABC00204610BD10B50F4C88B003A8FFF7F2FFCD
:104ACC002178BFF35B8F11F001010FD120460191CA
:104ADC00FFF7DDFA019948B103AA0748FFF7CAFFAF
:104AEC002046FFF7D9FA054800F082FA024808B0D0
:104AFC0010BD00BFF4E60320F8E60320094A0B00C2
:104B0C0070474174704708B5007CFFF755FC20EAEC
:104B1C00E07008BD08B5007CFFF726FC20EAE070C9
:104B2C0008BD08B5007CFFF72FFC40EAE07008BD1B
:104B3C0008B5007CFFF720FC40EAE07008BD007C63
:104B4C00FFF72ABC37B5457C04462DB1207C03B059
:104B5C00BDE83040FFF700BC007C0191FFF72CFC56
:104B6C0000280199F2DC284603B030BD10B51421A1
:104B7C000446FFF78AFA204610BD000010B54FF42A
:104B8C007A730446084611460022C4E90123044BFB
:104B9C002360012320746374FFF716FC204610BDBC
:104BAC0028520B007047F8B5064615460C468F1870
:104BBC00BC4206D0336814F8011B9B6830469847FA
:104BCC00F6E72846F8BD007C0022FFF705BC007C08
:104BDC000021FFF709BC007C0021FFF70DBC007C15
:104BEC000021FFF711BC007C0021FFF715BC10B5AC
:104BFC0014210446FFF749FA204610BD10B54FF4B6
:104C0C007A73044608460021C4E90113034B236060
:104C1C0020741146FFF710FC204610BD58520B00B3
:104C2C00002240681146FFF79BBC002240681146E9
:104C3C00FFF7B6BC002240681146FFF7C1BC4068C4
:104C4C000022FFF7B5BC4068002281F00101FFF79C
:104C5C009FBC002340681A461946FFF791BC0023FD
:104C6C0040681A461946FFF783BC0022406811467B
:104C7C00FFF766BC406800220221FFF769BC0023E5
:104C8C0040681A46FFF754BC024B04225A60024A91
:104C9C001A6070470CE7032080520B000023406819
:104CAC001A46FFF745BC406800220221FFF750BCB2
:104CBC00002240681146FFF743BC002240681146B1
:104CCC00FFF74EBC002340681A461946FFF750BC4C
:104CDC00002340681A461946FFF752BC4068002171
:104CEC00FFF776BC40680021FFF77ABC40680022D1
:104CFC0081F00101FFF74CBC40680022FFF758BC63
:104D0C00002240681146FFF75BBC00224068114648
:104D1C00FFF746BC2DE9F04395B014460D46074607
:104D2C00FFF72CFE00211C220DA8009100F074F955
:104D3C0040230C9320466B460CAA0021FFF7BCFACB
:104D4C00044600284BD1024601216868FFF708FC95
:104D5C000221804622466868FFF702FC009E8146CD
:104D6C002146002E3BD0002939D17368022B03D089
:104D7C000A2B11D0F669F4E7B8F1000FFAD071697B
:104D8C0006A8043107ADFFF727FE0FCD3C1D0FC45D
:104D9C002B6823704146EDE7B9F1000FEAD0746936
:104DAC00102201A800F038F906238DF8143001AD5B
:104DBC0004F108031834186859682A4603C20833EA
:104DCC00A3421546F7D101A906A807ADFFF7E4FDEC
:104DDC000FCD3C1D0FC42B6823704946CAE70098C1
:104DEC00FFF762FA384615B0BDE8F083024B034A70
:104DFC001A6000225A60704714E70320BC520B0063
:104E0C00232813B502D9002002B010BDA0F10B036A
:104E1C00022B1AD8174C2178BFF35B8F11F00101CC
:104E2C000BD120460191FFF732F9019928B11248B4
:104E3C00FFF744FC2046FFF72FF90F4B1878FFF7CC
:104E4C000BFB0028DFD10120DEE7012809D800F098
:104E5C00A9F80021007CFFF7E7FA80F00100C0B24E
:104E6C00D2E709380128EED800F060F8007CFFF793
:104E7C009BFAF2E71CE7032020E70320232838B530
:104E8C0004460D460AD8FF2908D0FFF7B9FF28B110
:104E9C0029462046BDE83840FFF71EBA38BD38B564
:104EAC0004460D46FFF720FAFF2810D0062804D838
:104EBC004D2323FA00F0C30709D42046FFF7A0FFC7
:104ECC0028B129462046BDE83840FFF715BA38BD51
:104EDC0010B50446FFF708FA031FDBB2012B08D903
:104EEC002046FFF78DFF20B12046BDE81040FFF7AC
:104EFC000BBA002010BD704738B5044614252A465D
:104F0C00002100F089F82580402507492581284695
:104F1C00258200F06BF804496060284600F066F8C2
:104F2C00E060204638BD00BFF0520B0030B50E4D8E
:104F3C002978BFF35B8F11F0010487B011D128469B
:104F4C00FFF7A5F868B101A8FFF7D6FF01AA214623
:104F5C000648FFF713FE2846FFF79EF8044800F0BA
:104F6C0047F8024807B030BD28E703202CE70320A0
:104F7C00034F0B007047000038B52025142304465E
:104F8C000360856005610649284600F02FF8044946
:104F9C006060284600F02AF8E060204638BD00BF6B
:104FAC00F0520B0030B50E4D2978BFF35B8F11F02A
:104FBC00010487B011D12846FFF769F868B101A840
:104FCC00FFF7DAFF01AA21460648FFF717FE28462D
:104FDC00FFF762F8044800F00BF8024807B030BD48
:104FEC0044E7032048E70320814F0B00FFF74BB841
:104FFC00002301461A46184600F04CB80A44914268
:10500C0000F1FF3300D1704710B511F8014B03F8D4
:10501C00014F9142F9D110BD02440346934200D195
:10502C00704703F8011BF9E738B5104B1D68AB6BE3
:10503C000446B3B91820FFF7E3FA0246A86320B977
:10504C000B4B0C484221FFF7EBFA0B490B4BC0E919
:10505C0000130B4B83600B23838100210120C2E9D9
:10506C000401AB6B00221C615A6138BD3CE6032085
:10507C00F1520B0008530B000E33CDAB34126DE61E
:10508C00ECDE0500034613F8012B002AFBD1181A9D
:10509C00013870472DE9F843DFF8B8800646D8F898
:1050AC0000001F460D46914600F056F8254B1C6833
:1050BC0034B9254C1C60254B13B11B68C4F88830DF
:1050CC0063681F2B07DDD8F8000000F047F84FF09D
:1050DC00FF30BDE8F8834EB3D4F8880088B91C4B78
:1050EC0023B9D8F8000000F038F8F0E74FF48470DA
:1050FC00FFF786FA0028F4D00023C0E94033C4F847
:10510C008800636840F8239001229A4000EB8301E9
:10511C00D0F800311343C0F80031022EC1F8807072
:10512C0002BFD0F804311343C0F804316368D8F8D7
:10513C0000005A1C0233626044F8235000F00EF851
:10514C000020C6E7E8E703205CE70320000000002E
:10515C000D460B00A0E60320704770477047000017
:10516C001D400B0059400B0081400B0085400B008B
:10517C00000000000000000000000000AB460B0027
:10518C00A1460B0097460B008D460B0081460B0089
:10519C0075460B00E94C0B00F14C0B0069460B00FB
:1051AC0061460B0057460B004D460B00214D0B0082
:1051BC006170700025592D256D2D25645425483AB4
:1051CC00254D3A2553257A0061736374696D65002A
:1051DC00000000000000000025490B0015490B00E1
:1051EC0017490B0000000000000000000B4A0B00E8
:1051FC00734A0B00494A0B0011470B003B4A0B004A
:10520C000D4A0B001D4A0B006D4A0B002D4A0B007A
:10521C00054A0B0000000000000000000D4B0B00C5
:10522C00794B0B00514B0B0011470B00214B0B0022
:10523C003D4B0B002F4B0B004B4B0B000F4B0B0044
:10524C00134B0B000000000000000000B14B0B00E2
:10525C00FB4B0B00D34B0B00B34B0B00DB4B0B008E
:10526C00E34B0B00EB4B0B00F34B0B00000000006F
:10527C00000000008B4C0B00814C0B00774C0B009A
:10528C002D4C0B006B4C0B005F4C0B00E94C0B00D6
:10529C00F14C0B00534C0B004B4C0B00414C0B00D6
:1052AC00374C0B00214D0B000000000000000000EB
:1052BC00A94C0B00B34C0B00BD4C0B00C74C0B00A6
:1052CC00D14C0B00DD4C0B00E94C0B00F14C0B00EE
:1052DC00F94C0B00054D0B000D4D0B00174D0B0041
:1052EC00214D0B00005245454E54206D616C6C6F86
:1052FC006320737563636565646564002F6D6E74FC
:10530C002F776F726B73706163652F776F726B732E
:10531C00706163652F4743432D31302D7069706583
:10532C006C696E652F6A656E6B696E732D474343AE
:10533C002D31302D706970656C696E652D34385F58
:10534C0032303230313132345F3136303631383000
:10535C003634312F7372632F6E65776C69622F6EE2
:10536C0065776C69622F6C6962632F7374646C6906
:10537C00622F72616E642E63000000007D420B0090
:10538C00A5420B00B5460B00DD460B0001470B0098
:10539C00A5470B00B5470B00D1470B00954C0B00F4
:0453AC00F94D0B00AC
:1053B000040000001400000003000000474E5500E8
:1053C000171F5590A9470A14EE1980AEA303EC7776
:0453D0007AE9C4B4FE
:0453D40000000000D5
:1053D80002000000D4510B0040E60320000000004A
:1053E80000000000000000000000000000000000B5
:1053F80000000000000000000000000000000000A5
:105408000000000000000000000000000000000094
:105418000000000000000000000000000000000084
:105428000000000000000000000000000000000074
:10543800000000000000000000000000ECE703206E
:10544800FFFFFFFF00000102030405060708090A21
:105458000B0C0D0E0F101112131415161718191A1C
:085468001B1C1D1E1F20280063
:045470007856341224
:04000003B000401CED
:00000001FF
